:100000000C945E000C9486000C9486000C94860080
:100010000C9486000C9486000C9486000C94860048
:100020000C9486000C9486000C9486000C94860038
:100030000C9486000C9486000C9486000C94860028
:100040000C94DC020C9486000C944C030C94260354
:100050000C9486000C9486000C9486000C94860008
:100060000C9486000C948600000000080002010039
:100070000003040700000000000000000000000072
:10008000250028002B0000000000240027002A0083
:10009000040404040404040402020202020203032E
:1000A0000303030301020408102040800102040836
:1000B000102001020408102092037E0311241FBEA9
:1000C000CFEFD8E0DEBFCDBF22E0A2E7B1E001C0B4
:1000D0001D92AA33B207E1F711E0A0E0B1E0E6E734
:1000E000FEE002C005900D92A237B107D9F710E0EB
:1000F000CDE5D0E004C02197FE010E942D05CC354E
:10010000D107C9F70E94DC030C942E070C94000061
:1001100090E0FC01EC55FF4F249180579F4FFC016C
:100120008491882399F090E0880F991FFC01EA5789
:10013000FF4FA591B491FC01E458FF4F8591949134
:100140008FB7F894EC91E22BEC938FBF089590E079
:10015000FC01E859FF4F2491FC01EC55FF4F34910D
:10016000FC01E057FF4FE491EE23C9F0222339F060
:10017000233001F1A8F4213019F1223029F1F0E007
:10018000EE0FFF1FE458FF4FA591B4918FB7F8947D
:10019000EC91611126C030953E233C938FBF0895AA
:1001A0002730A9F02830C9F0243049F78091800029
:1001B0008F7D03C0809180008F7780938000DFCF98
:1001C00084B58F7784BDDBCF84B58F7DFBCF8091E5
:1001D000B0008F778093B000D2CF8091B0008F7D38
:1001E000F9CF3E2BDACFAF92BF92CF92DF92EF9250
:1001F000FF920F931F93CF93DF936C017B018B01D1
:10020000040F151FEB015E01AE18BF08C017D10720
:1002100059F06991D601ED91FC910190F081E02DAA
:10022000C6010995892B79F7C501DF91CF911F91FF
:100230000F91FF90EF90DF90CF90BF90AF90089517
:10024000FC01538D448D252F30E0842F90E0821BDC
:10025000930B541710F0CF96089501970895FC0161
:10026000918D828D981761F0A28DAE0FBF2FB11DB9
:100270005D968C91928D9F5F9F73928F90E0089511
:100280008FEF9FEF08952FB7F894809177019091A9
:100290007801A0917901B0917A012FBF80938301F9
:1002A00090938401A0938501B09386018BE791E040
:1002B0000E942F0197FF26C02FB7F89480917701F5
:1002C00090917801A0917901B0917A012FBF40916E
:1002D0008301509184016091850170918601841B96
:1002E000950BA60BB70B40917F0150918001609157
:1002F00081017091820184179507A607B707B0F2B4
:100300008FEF9FEF0895FC01918D828D981731F04A
:10031000828DE80FF11D858D90E008958FEF9FEF9E
:100320000895FC01918D228D892F90E0805C9F4F74
:10033000821B91098F73992708958BE791E00E94A2
:10034000910121E0892B09F420E0822F089580E0BB
:1003500090E0892B29F00E949D0181110C940000EE
:100360000895FC01A48DA80FB92FB11DA35ABF4F4A
:100370002C91848D90E001968F739927848FA689A4
:10038000B7892C93A089B1898C91837080648C93F8
:10039000938D848D981306C00288F389E02D8081A7
:1003A0008F7D80830895EF92FF920F931F93CF93D9
:1003B000DF93EC0181E0888F9B8D8C8D98131AC0A0
:1003C000E889F989808185FF15C09FB7F894EE8987
:1003D000FF896083E889F9898081837080648083E4
:1003E0009FBF81E090E0DF91CF911F910F91FF902F
:1003F000EF900895F62E0B8D10E00F5F1F4F0F73D7
:100400001127E02E8C8D8E110CC00FB607FCFACF91
:10041000E889F989808185FFF5CFCE010E94B1017D
:10042000F1CFEB8DEC0FFD2FF11DE35AFF4FF08262
:100430009FB7F8940B8FEA89FB8980818062CFCFC8
:10044000CF93DF93EC01888D8823B9F0AA89BB890B
:10045000E889F9898C9185FD03C0808186FD0DC0F6
:100460000FB607FCF7CF8C9185FFF2CF808185FF17
:10047000EDCFCE010E94B101E9CFDF91CF91089578
:10048000FC0124813581FB01448155812417350706
:10049000E1F4FC0180819181FB0160817181009711
:1004A000D1F061157105A1F4232BC1F0FC0180810D
:1004B00090E008C0232B91F0FB01808190E09195A2
:1004C0008195910921E0892B09F020E0822F089580
:1004D0000E941E07F7CF6115710561F721E0F6CF85
:1004E0000F931F93CF93DF93EC018881998100973D
:1004F00059F02A813B812617370730F081E0DF91E0
:10050000CF911F910F9108958B016F5F7F4F0E94D4
:100510005806009759F0998388831B830A832C819E
:100520003D81232B59F7FC011082E8CF80E0E7CF13
:10053000FC0180819181009711F00C94CF05089502
:10054000EF92FF920F931F93CF93DF93EC017B0108
:10055000198218821B821A821D821C82FB01019063
:100560000020E9F731978F01061B170BB8010E9495
:10057000700228813981811113C02115310519F0CC
:10058000C9010E94CF05198218821D821C821B821C
:100590001A82DF91CF911F910F91FF90EF900895F4
:1005A0001D830C83B701C901DF91CF911F910F917A
:1005B000FF90EF900C9427071F920F920FB60F92A7
:1005C00011242F933F938F939F93AF93BF93809169
:1005D000770190917801A0917901B0917A013091E1
:1005E000760123E0230F2D3758F50196A11DB11D8B
:1005F000209376018093770190937801A0937901FD
:10060000B0937A018091720190917301A09174016D
:10061000B09175010196A11DB11D80937201909357
:100620007301A0937401B0937501BF91AF919F9135
:100630008F913F912F910F900FBE0F901F901895A3
:1006400026E8230F0296A11DB11DD2CF1F920F9253
:100650000FB60F9211242F933F934F935F936F9395
:100660007F938F939F93AF93BF93EF93FF938BE70A
:1006700091E00E94B101FF91EF91BF91AF919F91E5
:100680008F917F916F915F914F913F912F910F903B
:100690000FBE0F901F9018951F920F920FB60F92DA
:1006A00011242F938F939F93EF93FF93E0918B01EE
:1006B000F0918C018081E0919101F091920182FD95
:1006C0001BC09081809194018F5F8F732091950161
:1006D000821741F0E0919401F0E0E558FE4F958FCC
:1006E00080939401FF91EF919F918F912F910F90A3
:1006F0000FBE0F901F9018958081F4CF8AE292E090
:100700000E94980284E292E00E9498028EE192E0B8
:100710000E94980288E192E00E94980280E392E0B1
:100720000C949802EBE7F1E01382128288EE93E0DA
:10073000A0E0B0E084839583A683B78380E191E055
:100740009183808385EC90E09587848784EC90E0AA
:100750009787868780EC90E0918B808B81EC90E08E
:10076000938B828B82EC90E0958B848B86EC90E06F
:10077000978B868B118E128E138E148E6EE171E024
:1007800080E392E00E94A00261E471E088E192E0DF
:100790000E94A00265E471E08EE192E00E94A00256
:1007A0006BE471E084E292E00E94A00260E571E0F7
:1007B0008AE292E00C94A002CF93DF93CDB7DEB72C
:1007C00028970FB6F894DEBF0FBECDBF789484B5DE
:1007D000826084BD84B5816084BD85B5826085BD3D
:1007E00085B5816085BD80916E00816080936E00CB
:1007F00010928100809181008260809381008091BD
:10080000810081608093810080918000816080936D
:1008100080008091B10084608093B1008091B0002D
:1008200081608093B00080917A00846080937A0028
:1008300080917A00826080937A0080917A00816052
:1008400080937A0080917A00806880937A00109279
:10085000C100809100010E948800809102010E94E5
:100860008800809104010E948800E0918B01F09142
:100870008C0182E08083E0918701F09188011082F1
:10088000E0918901F0918A0184E4808310929301C0
:10089000E0918F01F091900186E08083E0918D01DD
:1008A000F0918E01808180618083E0918D01F091D3
:1008B0008E01808188608083E0918D01F0918E01AE
:1008C000808180688083E0918D01F0918E0180812C
:1008D0008F7D808380E0E82E80E0F82E40912E020C
:1008E00050912F0260912A0270912B028BE791E0C8
:1008F0000E94F30042E050E06FE671E08BE791E088
:100900000E94F3008BE791E00E949101892BD1F3C3
:1009100061E771E0CE0101960E94A0020E944301AE
:1009200097FD1BC08F8318860D811E810F5F1F4F9F
:10093000B801CE0101960E947002882379F32981C3
:100940003A818D819E81BE01695F7F4F820F931F27
:100950000E9427071E830D83E1CF68E172E0CE017C
:1009600001960E9440021091000161E0811139C09E
:100970006EE172E0CE0101960E944002882359F098
:1009800060E0812F0E94A70061E0809102010E9437
:10099000A70060E012C064E272E0CE0101960E94FE
:1009A000400260E08823E9F0812F0E94A70060E008
:1009B000809102010E94A70061E0809104010E94E1
:1009C000A700CE0101960E949802E114F10409F4F7
:1009D00085CF0E949D01882309F480CF0E940000EA
:1009E0007DCF812F0E94A70060E0CFCF2F923F9252
:1009F0004F925F926F927F928F929F92AF92BF922F
:100A0000CF92DF92EF92FF920F931F93CF93DF93DA
:100A1000CDB7DEB7CA1BDB0B0FB6F894DEBF0FBE37
:100A2000CDBF09942A88398848885F846E847D8484
:100A30008C849B84AA84B984C884DF80EE80FD8086
:100A40000C811B81AA81B981CE0FD11D0FB6F894FC
:100A5000DEBF0FBECDBFED010895EE0FFF1F059065
:100A6000F491E02D09940F931F93CF93DF9382307D
:100A7000910510F482E090E0E0913802F0913902A3
:100A800030E020E0B0E0A0E0309799F42115310586
:100A900009F44AC0281B390B24303105D8F58A8166
:100AA0009B816115710589F1FB0193838283FE01AE
:100AB00011C0408151810281138148175907E0F02C
:100AC0004817590799F4109761F012960C931297F2
:100AD00013961C933296CF01DF91CF911F910F9106
:100AE00008950093380210933902F4CF211531058F
:100AF00051F04217530738F0A901DB019A01BD01FB
:100B0000DF01F801C1CFEF01F9CF90933902809353
:100B10003802CDCFFE01E20FF31F81939193225053
:100B2000310939832883D7CF20913602309137029B
:100B3000232B41F4209108013091090130933702B1
:100B400020933602209106013091070121153105CD
:100B500041F42DB73EB740910A0150910B01241B7F
:100B6000350BE0913602F0913702E217F307A0F45B
:100B70002E1B3F0B2817390778F0AC014E5F5F4FF3
:100B80002417350748F04E0F5F1F509337024093EC
:100B90003602819391939FCFF0E0E0E09CCFCF931A
:100BA000DF930097E9F0FC01329713821282A09143
:100BB0003802B0913902ED0130E020E01097A1F445
:100BC00020813181820F931F2091360230913702AC
:100BD0002817390709F061C0F0933702E093360215
:100BE000DF91CF910895EA01CE17DF07E8F54A813A
:100BF0005B819E0141155105B1F7E901FB83EA8351
:100C000049915991C40FD51FEC17FD0761F48081FC
:100C100091810296840F951FE901998388838281CF
:100C200093819B838A83F0E0E0E012968D919C9102
:100C300013970097B9F52D913C911197CD0102962C
:100C4000820F931F209136023091370228173907FF
:100C500039F6309751F51092390210923802B0935C
:100C60003702A0933602BCCFD383C2834081518127
:100C7000840F951FC817D90761F44E5F5F4F8881B5
:100C80009981480F591F518340838A819B819383A7
:100C900082832115310509F0B0CFF0933902E0933A
:100CA00038029ECFFD01DC01C0CF13821282D7CF64
:100CB000B0E0A0E0EEE5F6E00C94F8048C010097BB
:100CC00051F4CB010E9433058C01C801CDB7DEB7CA
:100CD000E0E10C941405FC01E60FF71F9C01225083
:100CE0003109E217F30708F49DC0D901CD91DC91D9
:100CF0001197C617D70798F0C530D10530F3CE014C
:100D000004978617970708F3C61BD70B2297C19342
:100D1000D1936D937C93CF010E94CF05D6CF5B0119
:100D2000AC1ABD0A4C018C0E9D1EA0913802B091E8
:100D30003902512C412CF12CE12C109731F5809186
:100D40003602909137028815990509F05CC0461665
:100D5000570608F058C0809106019091070100974E
:100D600041F48DB79EB740910A0150910B01841B4D
:100D7000950BE817F90708F055C0F0933702E09398
:100D80003602F90171836083A0CF8D919C911197F8
:100D900012966C90129713967C901397A815B9052C
:100DA00059F56C0142E0C40ED11CCA14DB0420F1D9
:100DB000AC014A195B09DA011296159780F062823C
:100DC000738251834083D9016D937C93E114F104C4
:100DD00071F0D7011396FC93EE93129776CF22967B
:100DE0008C0F9D1FF90191838083F301EFCFF09366
:100DF0003902E093380269CF4816590608F42C01ED
:100E00007D01D3019ACFCB010E9433057C0100976D
:100E100049F0AE01B8010E941507C8010E94CF0534
:100E2000870153CF10E000E050CFFB01DC0102C08E
:100E300001900D9241505040D8F70895FB01DC011C
:100E40008D91019080190110D9F3990B0895FB0140
:100E5000DC0101900D920020E1F7089510E0CDE54E
:100E6000D0E004C0FE010E942D052196CE35D107A9
:060E7000C9F7F894FFCF62
:100E760004000300020000003A02800000000000A7
:100E8600D301F3002001200291012F018301467551
:100E9600636B206F666620647564652E204C45443E
:100EA6002063616E2774206265206275726E6564C8
:100EB6000072656400677265656E00626C75650038
:100EC6005761686C65206465696E6520666172624B
:100ED60065206175732C2062697474652021000D8C
:020EE6000A0000
:00000001FF
